:0300000002050CEA
:03000B000203EEFF
:03001B000203FBE2
:03002B0002044D7F
:10002E00C0E0C0D0C000C001C002E4F538F539F51B
:10003E003AF53BF53C7A20E533A2E779047830E6D1
:10004E0033F608D9FA79057838E636D4F608D9F9B0
:10005E00DAE5D002D001D000D0D0D0E022C0E0C08E
:10006E00D0C000C001C002E4F538F539F53AF53BD1
:10007E00F53C7A20E533A2E779047830E633F608CA
:10008E00D9FA79057838C0D0E6243320E70224D097
:10009E0020E30224FDD0D033F608D9EADAD6D00216
:1000AE00D001D000D0D0D0E022C0E0C0D0C000C07F
:1000BE0001C0027A207905C3783CE613C0D030E740
:1000CE000224D030E30224FDF618D0D0D9EC790406
:1000DE007833E613F618D9FADADBD002D001D00065
:1000EE00D0D0D0E022C0E0C0D0E5302534F530E5E8
:1000FE00313535F531E5323536F532E5333537F50F
:10010E0033D0D0D0E022C0E0C0D0C3E5309534F576
:10011E0030E5319535F531E5329536F532E53395E5
:10012E0037F533D0D0D0E022C0E0C0D0C3E5309553
:10013E0034E5319535E5329536E53395379200D075
:10014E00D0D0E022C0E0C0D0C3E5349530E535957F
:10015E0031E5369532E53795339200D0D0D0E02296
:10016E00C0E0C0D0C200C3E53495307014E53595BB
:10017E0031700EE53695327008E53795337002D240
:10018E0000D0D0D0E02212016E20000302015222D4
:10019E0012016E20000302013622C0E0C0F0C0D072
:1001AE00C000C001C002C003E5308534F0A4F8A938
:1001BE00F0E5318534F0A429F9E435F0FAE530851F
:1001CE0035F0A429F9E5F03AFAE433FBE53285344B
:1001DE00F0A42AFAE5F03BFBE5318535F0A42AFAC6
:1001EE00E5F03BFBE5308536F0A42AFAE5F03BFB63
:1001FE00E5338534F0A42BFBE5328535F0A42BFBDB
:10020E00E5318536F0A42BFBE5308537F0A42BFBCA
:10021E008B338A3289318830D003D002D001D0009E
:10022E00D0D0D0F0D0E022C0E0C0D0C000C001C01D
:10023E0002C003C0047C20E4F8F9FAFBC3E53033B6
:10024E00F530E53133F531E53233F532E53333F55B
:10025E0033E833F8E933F9EA33FAEB33FBC3E895C5
:10026E0034E99535EA9536EB95374013E89534F831
:10027E00E99535F9EA9536FAEB9537FB433001DC13
:10028E00BBD004D003D002D001D000D0D0D0E02219
:10029E00C0E0E8C4540F44301205FFE8540F443058
:0602AE001205FFD0E02262
:1002B400C00078B10000D8FCD00022C000C0017991
:1002C4002D78A6D8FED9FADAF6D001D00022D2B31E
:1002D4001202B4C2B322A2E792B7A2E692B6A2E592
:1002E40092B5A2E492B41202D21202B4A2E392B77B
:1002F400A2E292B6A2E192B5A2E092B41202D22294
:10030400D2B20202DAC2B20202DAC2B37433120304
:10031400097433120309743212030974281203098D
:10032400740C1203097401120309C0027A02120246
:10033400BFD00222E4936006120304A380F6224491
:10034400404480020309C0E0E8C4540F443012035F
:1003540004E8540F4430120304D0E022736F616B3D
:1003640020202020202020202020202000746D70B8
:100374003A5858582074696D653A5858580072654F
:10038400666C2020202020202020202020200063B4
:100394006F6F6C202A202020202020202020200085
:1003A400746D703A58585820202020202020202096
:1003B4000074656D703A58585820737461746520E0
:1003C4005800656C61707365642058583A58582019
:1003D400202000E58954F04401F589758CA9758ABB
:1003E4009A75F4A975F29AD2A922758CA9758A9A7C
:1003F40075F4A975F29A32C0E0C0D0E53F45404596
:1004040041601C74FF153FB53F071540B540021508
:1004140041D2A41204B32480F5AD43A440800CC29D
:100424008ED287C2A475AD8043A440D0D0D0E03230
:1004340075C80075CDA975CC9A75CBA975CA9AE40F
:10044400F542F543D2ADD2CA22C2CFC0E0C0D00536
:1004540042E54270020543E542B4E831E543B403A2
:100464002CD202E4F542F543E544B45910E4D4F542
:1004740044E545B4590FE4D4F5450204912401D46C
:10048400F5440204912401D4F545020491D0D0D05E
:10049400E03279DE78A6D8FED9FA4387807598527F
:1004A400759B00759AF4759B1E22D2A2C2972233C3
:1004B40092A5D284A2A7C28492E03392A5D284A248
:1004C400A7C28492E03392A5D284A2A7C28492E008
:1004D4003392A5D284A2A7C28492E03392A5D28497
:1004E400A2A7C28492E03392A5D284A2A7C2849226
:1004F400E03392A5D284A2A7C28492E03392A5D21B
:1005040084A2A7C28492E02275817FC2821209ACC0
:100514001204961204AE12030EC20175030075484C
:1005240000754400754500C2027547001203D712D6
:100534000434D2AF300205C20212060720010612AB
:1005440007FD020538020538E550C394FB40062038
:100554000306D20322C20322C203740522C2A07876
:10056400011205C878801205C8E95403F53E785590
:100574001205C8893DD2A022853D30853E317532B1
:100584000075330075349A7535017536007537007A
:100594001201A87534FF75350375360075370012DE
:1005A4000235753411753501753600753700120141
:1005B4001412002E1205E1E530B432004003D28C4F
:1005C40022C28C22C0E079007A08E833F892A1D2E2
:1005D40097A2A2E933F9C297DAF0D0E022E53954C0
:1005E4000F4430F81205FFC000A83812029ED00054
:1005F400740D1205FF740A1205FF223099FDC29989
:10060400F599222001030206A2C0E074011412032A
:1006140045D0E0C083C082C0E09003B5120338D057
:10062400E0D082D083C0E0740114120343D0E0C050
:1006340083C082C0E09003C6120338D0E0D082D0D9
:1006440083C0E0740614120345D0E0E55012087A22
:10065400C0E0741014120345D0E075300075310009
:1006640075320075330085483012002EE538540F7A
:100674004430F8E8120304C0E0740914120343D0B0
:10068400E0C000A84512034AD000C0E0740C141264
:100694000343D0E0C000A84412034AD00022E54737
:1006A400B400030206BFB401030206BFB40203028E
:1006B400073AB4030302073A0207B5C0E074011411
:1006C400120345D0E0C083C082C0E09003601203EF
:1006D40038D0E0D082D083C0E0740114120343D038
:1006E400E0C083C082C0E0900371120338D0E0D030
:1006F40082D083C0E0740514120343D0E0E54912AC
:10070400087AC0E0740E14120343D0E0E54A1208DC
:100714007AE547B4000CC0E0740614120345D0E037
:10072400800AC0E0740F14120345D0E0C0E0742ABC
:10073400120304D0E022C0E0740114120345D0E097
:10074400C083C082C0E0900382120338D0E0D0821C
:10075400D083C0E0740114120343D0E0C083C0828C
:10076400C0E0900371120338D0E0D082D083C0E09F
:10077400740514120343D0E0E54B12087AC0E07408
:100784000E14120343D0E0E54C12087AE547B40294
:100794000CC0E0740614120345D0E0800AC0E07473
:1007A4000F14120345D0E0C0E0742A120304D0E011
:1007B40022C0E0740114120345D0E0C083C082C09B
:1007C400E0900393120338D0E0D082D083C0E07469
:1007D4000114120343D0E0C083C082C0E09003A49C
:1007E400120338D0E0D082D083C0E0740514120321
:1007F40043D0E0E54D12087A2220861BC0027A64B9
:100804001202BFD00220860F3086FDE547B40404EF
:100814007547002205472220832CC0027A32120237
:10082400BFD0022083203083FDE547B4000305498F
:1008340022B40103054A22B40203054B22B4030384
:10084400054C22054D2220802CC0027A321202BFB0
:10085400D0022080203080FDE547B40003154922F2
:10086400B40103154A22B40203154B22B403031541
:100874004C22154D222275F064844430120304E5A1
:10088400F075F00A844430120304E5F04430120396
:10089400042220A613C0027A321202BFD00220A67C
:1008A4000730A6FD7405F5482220C511C0027A322E
:1008B4001202BFD00220C50530C5FDB20122E54EAB
:1008C400B46409D28222B40003C28222E542B40095
:1008D4000EC282E542B42007E543B40302D2822269
:1008E400754923754A0A754B32754C05754D1E22A0
:1008F400E548B40011754E001208AD300105754885
:1009040001C201020538B40115754E64754F00E546
:1009140049C395505005754802D201020538B40206
:1009240010754E14E54AC3954F50037548030205EC
:1009340038B40313754E64754F00E54BC39550509E
:1009440003754804020538B40410754E14E54CC30D
:10095400954F5003754805020538B40595754E004A
:10096400E550C3954D5003754800020538C0A8C230
:10097400AF75D108907F80E549F0A3E54AF0A3E57F
:100984004BF0A3E54CF0A3E54DF0A37455F0A3742C
:10099400AAF0A375D10043D24075D15075D1A0758A
:1009A400D10053D2BFD0A822907F84E493F8A3B897
:1009B4005524E493F8A3B8AA1D907F80E493F549E5
:1009C400A3E493F54AA3E493F54BA3E493F54CA372
:0B09D400E493F54DA3220208E4222268
:00000001FF
