:0300000002047A7D
:03000B000203EEFF
:03002B00020414B8
:10002E00C0E0C0D0C000C001C002E4F538F539F51B
:10003E003AF53BF53C7A20E533A2E779047830E6D1
:10004E0033F608D9FA79057838E636D4F608D9F9B0
:10005E00DAE5D002D001D000D0D0D0E022C0E0C08E
:10006E00D0C000C001C002E4F538F539F53AF53BD1
:10007E00F53C7A20E533A2E779047830E633F608CA
:10008E00D9FA79057838C0D0E6243320E70224D097
:10009E0020E30224FDD0D033F608D9EADAD6D00216
:1000AE00D001D000D0D0D0E022C0E0C0D0C000C07F
:1000BE0001C0027A207905C3783CE613C0D030E740
:1000CE000224D030E30224FDF618D0D0D9EC790406
:1000DE007833E613F618D9FADADBD002D001D00065
:1000EE00D0D0D0E022C0E0C0D0E5302534F530E5E8
:1000FE00313535F531E5323536F532E5333537F50F
:10010E0033D0D0D0E022C0E0C0D0C3E5309534F576
:10011E0030E5319535F531E5329536F532E53395E5
:10012E0037F533D0D0D0E022C0E0C0D0C3E5309553
:10013E0034E5319535E5329536E53395379200D075
:10014E00D0D0E022C0E0C0D0C3E5349530E535957F
:10015E0031E5369532E53795339200D0D0D0E02296
:10016E00C0E0C0D0C200C3E53495307014E53595BB
:10017E0031700EE53695327008E53795337002D240
:10018E0000D0D0D0E02212016E20000302015222D4
:10019E0012016E20000302013622C0E0C0F0C0D072
:1001AE00C000C001C002C003E5308534F0A4F8A938
:1001BE00F0E5318534F0A429F9E435F0FAE530851F
:1001CE0035F0A429F9E5F03AFAE433FBE53285344B
:1001DE00F0A42AFAE5F03BFBE5318535F0A42AFAC6
:1001EE00E5F03BFBE5308536F0A42AFAE5F03BFB63
:1001FE00E5338534F0A42BFBE5328535F0A42BFBDB
:10020E00E5318536F0A42BFBE5308537F0A42BFBCA
:10021E008B338A3289318830D003D002D001D0009E
:10022E00D0D0D0F0D0E022C0E0C0D0C000C001C01D
:10023E0002C003C0047C20E4F8F9FAFBC3E53033B6
:10024E00F530E53133F531E53233F532E53333F55B
:10025E0033E833F8E933F9EA33FAEB33FBC3E895C5
:10026E0034E99535EA9536EB95374013E89534F831
:10027E00E99535F9EA9536FAEB9537FB433001DC13
:10028E00BBD004D003D002D001D000D0D0D0E02219
:10029E00C0E0E8C4540F443012056CE8540F4430EB
:0602AE0012056CD0E022F5
:1002B400C00078B10000D8FCD00022C000C0017991
:1002C4002D78A6D8FED9FADAF6D001D00022D2B31E
:1002D4001202B4C2B322A2E792B7A2E692B6A2E592
:1002E40092B5A2E492B41202D21202B4A2E392B77B
:1002F400A2E292B6A2E192B5A2E092B41202D22294
:10030400D2B20202DAC2B20202DAC2B37433120304
:10031400097433120309743212030974281203098D
:10032400740C1203097401120309C0027A02120246
:10033400BFD00222E4936006120304A380F6224491
:10034400404480020309C0E0E8C4540F443012035F
:1003540004E8540F4430120304D0E022736F616B3D
:1003640020202020202020202020202000746D70B8
:100374003A5858582074696D653A5858580072654F
:10038400666C2020202020202020202020200063B4
:100394006F6F6C202A202020202020202020200085
:1003A400746D703A58585820202020202020202096
:1003B4000074656D703A58585820737461746520E0
:1003C4005800656C61707365642058583A58582019
:1003D400202000E58954F04401F589758CA9758ABB
:1003E4009A75F4A975F29AD2A922758CA9758A9A7C
:1003F40075F4A975F29A3275C80075CDA975CC9AB1
:1004040075CBA975CA9AE4F53FF540D2ADD2CA229C
:10041400C2CFC0E0C0D0053FE53F70020540E53FD4
:10042400B4E831E540B4032CD202E4F53FF540E5ED
:1004340041B45910E4D4F541E542B4590FE4D4F57C
:10044400420204582401D4F5410204582401D4F58D
:1004540042020458D0D0D0E03279DE78A6D8FED952
:10046400FA438780759852759B00759AF4759B1EA4
:1004740022D2A2C2972275817FC28212093B120442
:100484005D12047512030EC201C203754500754165
:1004940000754200C2027544001203D71203FBD256
:1004A400AF300202C20220010912076A1205740267
:1004B40004A50204A5E54DC394FB4006200306D21F
:1004C4000322C20322C203740522C2A078011205CA
:1004D400357880120535E95403F53E785512053513
:1004E400893DD2A022853D30853E31753200753379
:1004F4000075349A7535017536007537001201A8F8
:100504007534FF753503753600753700120235757D
:100514003411753501753600753700120114120057
:100524002E12054EE530B432004003D28C22C28C28
:1005340022C0E079007A08E833F892A1D297A2A207
:10054400E933F9C297DAF0D0E022E539540F4430A8
:10055400F812056CC000A83812029ED000740D1267
:10056400056C740A12056C223099FDC299F5992222
:1005740020010302060FC0E0740114120345D0E009
:10058400C083C082C0E09003B5120338D0E0D082AB
:10059400D083C0E0740114120343D0E0C083C0824E
:1005A400C0E09003C6120338D0E0D082D083C0E00C
:1005B400740614120345D0E0E54D120809C0E07436
:1005C4001014120345D0E075300075310075320007
:1005D40075330085453012002EE538540F4430F849
:1005E400E8120304C0E0740914120343D0E0C0000D
:1005F400A84212034AD000C0E0740C14120343D082
:10060400E0C000A84112034AD00022E544B400032C
:1006140002062CB4010302062CB402030206A7B49A
:1006240003030206A7020722C0E074011412034563
:10063400D0E0C083C082C0E0900360120338D0E0F1
:10064400D082D083C0E0740114120343D0E0C0838D
:10065400C082C0E0900371120338D0E0D082D0830E
:10066400C0E0740514120343D0E0E546120809C043
:10067400E0740E14120343D0E0E547120809E54480
:10068400B4000CC0E0740614120345D0E0800AC024
:10069400E0740F14120345D0E0C0E0742A1203047E
:1006A400D0E022C0E0740114120345D0E0C083C03E
:1006B40082C0E0900382120338D0E0D082D083C09D
:1006C400E0740114120343D0E0C083C082C0E09000
:1006D4000371120338D0E0D082D083C0E0740514D3
:1006E400120343D0E0E548120809C0E0740E141266
:1006F4000343D0E0E549120809E544B4020CC0E024
:10070400740614120345D0E0800AC0E0740F14127A
:100714000345D0E0C0E0742A120304D0E022C0E014
:10072400740114120345D0E0C083C082C0E090037A
:1007340093120338D0E0D082D083C0E07401141245
:100744000343D0E0C083C082C0E09003A412033806
:10075400D0E0D082D083C0E0740514120343D0E00B
:10076400E54A1208092220861FC0027A321202BF0B
:10077400D0022086133086FDE544B4040675440097
:1007840002060F054402060F20833BC0027A321290
:1007940002BFD00220832F3083FDE544B400060558
:1007A4004612066422B40106054612066422B40207
:1007B4000605481206DF22B4030605491206DF22A5
:1007C400054A12075A2220803BC0027A321202BF25
:1007D400D00220802F3080FDE544B4000615461277
:1007E400066422B40106154712066422B4020615F3
:1007F400481206DF22B4030615491206DF22154A01
:1008040012075A222275F064844430120304E5F07E
:1008140075F00A844430120304E5F04430120304F2
:100824002220A613C0027A321202BFD00220A607E9
:1008340030A6FD7405F5452220C511C0027A321296
:1008440002BFD00220C50530C5FDB20122E54BB47C
:100854006409D28222B40003C28222E53FB4000EAE
:10086400C282E53FB42007E540B40302D282227578
:10087400462375470A754832754905754A1E22E5AF
:1008840045B40011754B0012083C30010575450153
:10089400C2010204A5B40115754B64754C00E5460C
:1008A400C3954D5005754502D2010204A5B402104A
:1008B400754B14E547C3954C50037545030204A5D5
:1008C400B40313754B64754C00E548C3954D500350
:1008D4007545040204A5B40410754B14E549C39589
:1008E4004C50037545050204A5B40595754B00E508
:1008F4004DC3954A50037545000204A5C0A8C2AF74
:1009040075D108907F80E546F0A3E547F0A3E5485C
:10091400F0A3E549F0A3E54AF0A37455F0A374AA43
:10092400F0A375D10043D24075D15075D1A075D1D3
:100934000053D2BFD0A822907F84E493F8A3B85583
:1009440024E493F8A3B8AA1D907F80E493F546A30A
:10095400E493F547A3E493F548A3E493F549A3E4AA
:0A09640093F54AA322020873222231
:00000001FF
