:0300000002047C7B
:03000B000203EEFF
:03002B00020414B8
:10002E00C0E0C0D0C000C001C002E4F538F539F51B
:10003E003AF53BF53C7A20E533A2E779047830E6D1
:10004E0033F608D9FA79057838E636D4F608D9F9B0
:10005E00DAE5D002D001D000D0D0D0E022C0E0C08E
:10006E00D0C000C001C002E4F538F539F53AF53BD1
:10007E00F53C7A20E533A2E779047830E633F608CA
:10008E00D9FA79057838C0D0E6243320E70224D097
:10009E0020E30224FDD0D033F608D9EADAD6D00216
:1000AE00D001D000D0D0D0E022C0E0C0D0C000C07F
:1000BE0001C0027A207905C3783CE613C0D030E740
:1000CE000224D030E30224FDF618D0D0D9EC790406
:1000DE007833E613F618D9FADADBD002D001D00065
:1000EE00D0D0D0E022C0E0C0D0E5302534F530E5E8
:1000FE00313535F531E5323536F532E5333537F50F
:10010E0033D0D0D0E022C0E0C0D0C3E5309534F576
:10011E0030E5319535F531E5329536F532E53395E5
:10012E0037F533D0D0D0E022C0E0C0D0C3E5309553
:10013E0034E5319535E5329536E53395379200D075
:10014E00D0D0E022C0E0C0D0C3E5349530E535957F
:10015E0031E5369532E53795339200D0D0D0E02296
:10016E00C0E0C0D0C200C3E53495307014E53595BB
:10017E0031700EE53695327008E53795337002D240
:10018E0000D0D0D0E02212016E20000302015222D4
:10019E0012016E20000302013622C0E0C0F0C0D072
:1001AE00C000C001C002C003E5308534F0A4F8A938
:1001BE00F0E5318534F0A429F9E435F0FAE530851F
:1001CE0035F0A429F9E5F03AFAE433FBE53285344B
:1001DE00F0A42AFAE5F03BFBE5318535F0A42AFAC6
:1001EE00E5F03BFBE5308536F0A42AFAE5F03BFB63
:1001FE00E5338534F0A42BFBE5328535F0A42BFBDB
:10020E00E5318536F0A42BFBE5308537F0A42BFBCA
:10021E008B338A3289318830D003D002D001D0009E
:10022E00D0D0D0F0D0E022C0E0C0D0C000C001C01D
:10023E0002C003C0047C20E4F8F9FAFBC3E53033B6
:10024E00F530E53133F531E53233F532E53333F55B
:10025E0033E833F8E933F9EA33FAEB33FBC3E895C5
:10026E0034E99535EA9536EB95374013E89534F831
:10027E00E99535F9EA9536FAEB9537FB433001DC13
:10028E00BBD004D003D002D001D000D0D0D0E02219
:10029E00C0E0E8C4540F4430120633E8540F443023
:0602AE00120633D0E0222D
:1002B400C00078B10000D8FCD00022C000C0017991
:1002C4002D78A6D8FED9FADAF6D001D00022D2B31E
:1002D4001202B4C2B322A2E792B7A2E692B6A2E592
:1002E40092B5A2E492B41202D21202B4A2E392B77B
:1002F400A2E292B6A2E192B5A2E092B41202D22294
:10030400D2B20202DAC2B20202DAC2B37433120304
:10031400097433120309743212030974281203098D
:10032400740C1203097401120309C0027A02120246
:10033400BFD00222E4936006120304A380F6224491
:10034400404480020309C0E0E8C4540F443012035F
:1003540004E8540F4430120304D0E022736F616B3D
:1003640020202020202020202020202000746D70B8
:100374003A5858582074696D653A5858580072654F
:10038400666C6F772020202020202020202000630E
:100394006F6F6C202020202020202020202020008F
:1003A40074656D703A585858202020202020202051
:1003B4000074656D703A58585820737461746520E0
:1003C4005800656C61707365642058583A58582019
:1003D400202000E58954F04401F589758CA9758ABB
:1003E4009A75F4A975F29AD2A922758CA9758A9A7C
:1003F40075F4A975F29A3275C80075CDA975CC9AB1
:1004040075CBA975CA9AE4F53FF540D2ADD2CA229C
:10041400C2CFB290C0E0C0D0053FE53F70020540B6
:10042400E53FB4E831E540B4032CD202E4F53FF5EE
:1004340040E541B45910E4D4F541E542B4590FE420
:10044400D4F54202045A2401D4F54102045A240189
:10045400D4F54202045AD0D0D0E03279DE78A6D85E
:10046400FED9FA438780759852759B00759AF47586
:100474009B1E22D2A2C2A32275817FC2D012045F26
:1004840012047712030E1203D7D2AF30020BC2024A
:1004940012063B1204AC1204C720010312092612EF
:1004A4000A04020A5F02048FC2A0780112052078B0
:1004B40080120520E95403F53E7855120520893D44
:1004C400D2A022853D30853E3175320075330075EA
:1004D400349A7535017536007537001201A87534E4
:1004E400FF75350375360075370012023575341102
:1004F40075350175360075370012011412002E127D
:10050400061FE530B432004003D28C22C28C227A1A
:10051400C879DE78A6D8FED9FADAFA22C0E07900E2
:100524007A08E833F892A1D2A3A2A2E933F9C2A3CC
:10053400DAF0D0E022C0E0740714120343D0E0C024
:1005440000A83C12034AD000C000A83B12034AD0C2
:1005540000C000A83A12034AD000C000A839120310
:100564004AD000C000A83812034AD000C0E0740783
:1005740014120343D0E0E53C54F0C4600302061EA9
:10058400C0E07420120304D0E0E53C540F60030281
:10059400061EC0E07420120304D0E0E53B54F0C40E
:1005A400600302061EC0E07420120304D0E0E53BA1
:1005B400540F600302061EC0E07420120304D0E04E
:1005C400E53A54F0C4600302061EC0E0742012032E
:1005D40004D0E0E53A540F600302061EC0E0742024
:1005E400120304D0E0E53954F0C4600302061EC0CF
:1005F400E07420120304D0E0E539540F60030206CE
:100604001EC0E07420120304D0E0E53854F0C47036
:1006140009C0E07420120304D0E022C000A83812FC
:10062400029ED000740D120633740A12063322306F
:1006340099FDC299F59922200103020719C0E074BB
:100644000114120345D0E0C083C082C0E09003B51A
:10065400120338D0E0D082D083C0E07401141203B6
:1006640043D0E0C083C082C0E09003C6120338D0F8
:10067400E0D082D083C0E0740514120345D0E07545
:100684003000753100753200753300854D3012002D
:100694002EC000A83912034AD000C000A8381203A3
:1006A4004AD000C0E0740514120345D0E0C0E074E1
:1006B4003A120304D0E0C0E0740F14120345D0E0F2
:1006C4007530007531007532007533008545301280
:1006D400002EC000A83812034AD000C0E0740F14E2
:1006E400120345D0E0C0E07420120304D0E0C0E05F
:1006F400740914120343D0E0C000A84212034AD084
:1007040000C0E0740C14120343D0E0C000A84112EE
:10071400034AD00022E544B40009020736B40103B9
:10072400020736B402090207F1B403030207F10217
:1007340008ACC0E0740114120345D0E0C083C08249
:10074400C0E0900360120338D0E0D082D083C0E0D0
:10075400740114120343D0E0C083C082C0E090034C
:1007640071120338D0E0D082D083C0E07404141234
:100774000343D0E0753000753100753200753300E5
:1007840085463012002EC000A83912034AD000C09A
:1007940000A83812034AD000C0E0740414120343C2
:1007A400D0E0C0E0743A120304D0E0C0E0740D1449
:1007B400120343D0E0753000753100753200753393
:1007C4000085473012002EC000A83912034AD00019
:1007D400C000A83812034AD000C0E0740D141203FC
:1007E40043D0E0C0E0743A120304D0E022C0E074C5
:1007F4000114120345D0E0C083C082C0E09003829C
:10080400120338D0E0D082D083C0E0740114120304
:1008140043D0E0C083C082C0E0900371120338D09B
:10082400E0D082D083C0E0740414120343D0E07596
:100834003000753100753200753300854830120080
:100844002EC000A83912034AD000C000A8381203F1
:100854004AD000C0E0740414120343D0E0C0E07432
:100864003A120304D0E0C0E0740D14120343D0E044
:1008740075300075310075320075330085493012CA
:10088400002EC000A83912034AD000C000A83812B4
:10089400034AD000C0E0740D14120343D0E0C0E05A
:1008A400743A120304D0E022C0E074011412034528
:1008B400D0E0C083C082C0E0900393120338D0E03C
:1008C400D082D083C0E0740114120343D0E0C0830B
:1008D400C082C0E09003A4120338D0E0D082D08359
:1008E400C0E0740414120343D0E075300075310085
:1008F400753200753300854C3012002EC000A839C3
:1009040012034AD000C000A83812034AD000C0E045
:10091400740414120343D0E0C0E0743A120304D008
:10092400E02220861DC0027A321202BFD002208645
:10093400113086FDE544B40403754400E544240104
:10094400F54420834FC0027A321202BFD0022083C2
:10095400433083FDE544B4000AE5462401F546121C
:10096400063B22B4010AE5472401F54712063B225F
:10097400B4020AE5482401F54812063B22B4030AEE
:10098400E5492401F54912063B22E54C2401F54CC6
:1009940012063B22208068C0027A321202BFD002C3
:1009A40020805C3080FDE544B4000FE546B40002CD
:1009B40080049401F54612063B22B4010FE547B4C6
:1009C400000280049401F54712063B22B4020FE5AD
:1009D40048B4000280049401F54812063B22B40393
:1009E4000FE549B4000280049401F54912063B2244
:1009F400E54CB4000280049401F54C12063B22221B
:100A040020C513C0027A321202BFD00220C50730BB
:100A1400C5FD7400F5452220A411C0027A321202E9
:100A2400BFD00220A40530A4FDB20122E54AB4647B
:100A340009D2D022B40003C2D022E53FB4000EC2D2
:100A4400D0E53FB42007E540B40302D2D022754676
:100A54009675472D7548E175491E22E545B4000F8A
:100A6400754A00120A1B30010375450102048FB454
:100A74000113754A64754B00E546C3954D500375E3
:100A8400450202048FB40210754A14E547C3954B1E
:100A9400500375450302048FB40313754A64754B00
:100AA40000E548C3954D500375450402048FB40412
:100AB40010754A14E549C3954B5003754505020466
:100AC4008FB40599754A00E54DC3954C500375459F
:040AD4000002048F89
:00000001FF
