:0300000002047C7B
:03000B000203EEFF
:03002B00020414B8
:10002E00C0E0C0D0C000C001C002E4F538F539F51B
:10003E003AF53BF53C7A20E533A2E779047830E6D1
:10004E0033F608D9FA79057838E636D4F608D9F9B0
:10005E00DAE5D002D001D000D0D0D0E022C0E0C08E
:10006E00D0C000C001C002E4F538F539F53AF53BD1
:10007E00F53C7A20E533A2E779047830E633F608CA
:10008E00D9FA79057838C0D0E6243320E70224D097
:10009E0020E30224FDD0D033F608D9EADAD6D00216
:1000AE00D001D000D0D0D0E022C0E0C0D0C000C07F
:1000BE0001C0027A207905C3783CE613C0D030E740
:1000CE000224D030E30224FDF618D0D0D9EC790406
:1000DE007833E613F618D9FADADBD002D001D00065
:1000EE00D0D0D0E022C0E0C0D0E5302534F530E5E8
:1000FE00313535F531E5323536F532E5333537F50F
:10010E0033D0D0D0E022C0E0C0D0C3E5309534F576
:10011E0030E5319535F531E5329536F532E53395E5
:10012E0037F533D0D0D0E022C0E0C0D0C3E5309553
:10013E0034E5319535E5329536E53395379200D075
:10014E00D0D0E022C0E0C0D0C3E5349530E535957F
:10015E0031E5369532E53795339200D0D0D0E02296
:10016E00C0E0C0D0C200C3E53495307014E53595BB
:10017E0031700EE53695327008E53795337002D240
:10018E0000D0D0D0E02212016E20000302015222D4
:10019E0012016E20000302013622C0E0C0F0C0D072
:1001AE00C000C001C002C003E5308534F0A4F8A938
:1001BE00F0E5318534F0A429F9E435F0FAE530851F
:1001CE0035F0A429F9E5F03AFAE433FBE53285344B
:1001DE00F0A42AFAE5F03BFBE5318535F0A42AFAC6
:1001EE00E5F03BFBE5308536F0A42AFAE5F03BFB63
:1001FE00E5338534F0A42BFBE5328535F0A42BFBDB
:10020E00E5318536F0A42BFBE5308537F0A42BFBCA
:10021E008B338A3289318830D003D002D001D0009E
:10022E00D0D0D0F0D0E022C0E0C0D0C000C001C01D
:10023E0002C003C0047C20E4F8F9FAFBC3E53033B6
:10024E00F530E53133F531E53233F532E53333F55B
:10025E0033E833F8E933F9EA33FAEB33FBC3E895C5
:10026E0034E99535EA9536EB95374013E89534F831
:10027E00E99535F9EA9536FAEB9537FB433001DC13
:10028E00BBD004D003D002D001D000D0D0D0E02219
:10029E00C0E0E8C4540F443012056BE8540F4430EC
:0602AE0012056BD0E022F6
:1002B400C00078B10000D8FCD00022C000C0017991
:1002C4002D78A6D8FED9FADAF6D001D00022D2B31E
:1002D4001202B4C2B322A2E792B7A2E692B6A2E592
:1002E40092B5A2E492B41202D21202B4A2E392B77B
:1002F400A2E292B6A2E192B5A2E092B41202D22294
:10030400D2B20202DAC2B20202DAC2B37433120304
:10031400097433120309743212030974281203098D
:10032400740C1203097401120309C0027A02120246
:10033400BFD00222E4936006120304A380F6224491
:10034400404480020309C0E0E8C4540F443012035F
:1003540004E8540F4430120304D0E022736F616B3D
:1003640020202020202020202020202000746D70B8
:100374003A5858582074696D653A5858580072654F
:10038400666C2020202020202020202020200063B4
:100394006F6F6C202A202020202020202020200085
:1003A400746D703A58585820202020202020202096
:1003B4000074656D703A58585820737461746520E0
:1003C4005800656C61707365642058583A58582019
:1003D400202000E58954F04401F589758CA9758ABB
:1003E4009A75F4A975F29AD2A922758CA9758A9A7C
:1003F40075F4A975F29A3275C80075CDA975CC9AB1
:1004040075CBA975CA9AE4F53FF540D2ADD2CA229C
:10041400C2CFB290C0E0C0D0053FE53F70020540B6
:10042400E53FB4E831E540B4032CD202E4F53FF5EE
:1004340040E541B45910E4D4F541E542B4590FE420
:10044400D4F54202045A2401D4F54102045A240189
:10045400D4F54202045AD0D0D0E03279DE78A6D85E
:10046400FED9FA438780759852759B00759AF47586
:100474009B1E22D2A2C2A32275817FC2D0120A4738
:1004840012045F12047712030E75010075030075E0
:1004940045007541007542001203D71203FBD2AF29
:1004A400300205C20212057320010612082F02044D
:1004B400A40204A4E54DC394FB4006200306D20322
:1004C40022C20322C203740522C2A0780112053499
:1004D4007880120534E95403F53E785512053489C1
:1004E4003DD2A022853D30853E3175320075330002
:1004F40075349A7535017536007537001201A87583
:1005040034FF7535037536007537001202357534BE
:100514001175350175360075370012011412002E5D
:1005240012054DE530B432004003D28C22C28C2235
:10053400C0E079007A08E833F892A1D2A3A2A2E934
:1005440033F9C2A3DAF0D0E022E539540F4430F88D
:1005540012056BC000A83812029ED000740D12055B
:100564006B740A12056B223099FDC299F599222009
:10057400010302062FC0E0740114120345D0E0C049
:1005840083C082C0E09003B5120338D0E0D082D09B
:1005940083C0E0740114120343D0E0C083C082C05E
:1005A400E09003C6120338D0E0D082D083C0E07458
:1005B4000614120345D0E075300075310075320021
:1005C400753300854D3012002EE539540F4430F850
:1005D400E8120304C000A83812034AD000C0E07433
:1005E4001014120345D0E0753000753100753200E7
:1005F40075330085453012002EE538540F4430F829
:10060400E8120304C0E0740914120343D0E0C000EC
:10061400A84212034AD000C0E0740C14120343D061
:10062400E0C000A84112034AD00022E544B400030C
:1006340002064CB4010302064CB40203020709B4D7
:1006440003030207090207C6C0E07401141203453C
:10065400D0E0C083C082C0E0900360120338D0E0D1
:10066400D082D083C0E0740114120343D0E0C0836D
:10067400C082C0E0900371120338D0E0D082D083EE
:10068400C0E0740514120343D0E0753000753100E6
:1006940075320075330085463012002EE539540F4B
:1006A4004430F8E8120304C000A83812034AD0000A
:1006B400C0E0740E14120343D0E0753000753100AD
:1006C40075320075330085473012002EE539540F1A
:1006D4004430F8E8120304C000A83812034AD000DA
:1006E400E544B4000CC0E0740614120345D0E08065
:1006F4000AC0E0740F14120345D0E0C0E0742A125B
:100704000304D0E022C0E0740114120345D0E0C019
:1007140083C082C0E0900382120338D0E0D082D03C
:1007240083C0E0740114120343D0E0C083C082C0CC
:10073400E0900371120338D0E0D082D083C0E0741B
:100744000514120343D0E075300075310075320092
:1007540075330085483012002EE539540F4430F8C3
:10076400E8120304C000A83812034AD000C0E074A1
:100774000E14120343D0E075300075310075320059
:1007840075330085493012002EE539540F4430F892
:10079400E8120304C000A83812034AD000E544B4A8
:1007A400020CC0E0740614120345D0E0800AC0E0D5
:1007B400740F14120345D0E0C0E0742A120304D06D
:1007C400E022C0E0740114120345D0E0C083C0826B
:1007D400C0E0900393120338D0E0D082D083C0E00D
:1007E400740114120343D0E0C083C082C0E09003BC
:1007F400A4120338D0E0D082D083C0E07405141270
:100804000343D0E075300075310075320075330054
:10081400854C3012002EE539540F4430F8E81203A9
:1008240004C000A83812034AD00022208623C00244
:100834007A321202BFD0022086173086FDE544B416
:100844000406754400020573E5442401F5440205D9
:100854007320835EC0027A321202BFD00220835218
:100864003083FDE544B4000DE5462401F546120A43
:100874000C02057322B4010DE5472401F547120A61
:100884000C02057322B4020DE5482401F548120A4E
:100894000C02057322B4030DE5492401F549120A3B
:1008A4000C02057322E54C2401F54C120A0C0205D6
:1008B4007322208077C0027A321202BFD0022080D5
:1008C4006B3080FDE544B40012E546B400028004B8
:1008D4009401F546120A0C02057322B40112E5478D
:1008E400B4000280049401F547120A0C0205732235
:1008F400B40212E548B4000280049401F548120AD7
:100904000C02057322B40312E549B4000280049476
:1009140001F549120A0C02057322E54CB400028069
:10092400049401F54C120A0C020573222220C5130B
:10093400C0027A321202BFD00220C50730C5FD744E
:1009440005F5452220A411C0027A321202BFD0025A
:1009540020A40530A4FDB20122E54AB46409D2D032
:1009640022B40003C2D022E53FB4000EC2D0E53F5A
:10097400B42007E540B40302D2D0227546967547E9
:100984002D7548E175491E754C3222E545B40011B8
:10099400754A00120948300105754501C201020477
:1009A400A4B40115754A64754B00E546C3954D50D2
:1009B40005754502D2010204A4B40210754A14E577
:1009C40047C3954B50037545030204A4B403137540
:1009D4004A64754B00E548C3954D500375450402C0
:1009E40004A4B40410754A14E549C3954B50037527
:1009F40045050204A4B40595754A00E54DC3954C1C
:100A040050037545000204A4C0A8C2AF75D1089074
:100A14007F80E546F0A3E547F0A3E548F0A3E54968
:100A2400F0A3E54CF0A37455F0A374AAF0A375D118
:100A34000043D24075D15075D1A075D10053D2BFB7
:100A4400D0A822907F84E493F8A3B85524E493F8C3
:100A5400A3B8AA1D907F80E493F546A3E493F547D9
:100A6400A3E493F548A3E493F549A3E493F54CA3D5
:060A74002202097F22228C
:00000001FF
