:0300000002047C7B
:03000B000203EEFF
:03002B00020414B8
:10002E00C0E0C0D0C000C001C002E4F538F539F51B
:10003E003AF53BF53C7A20E533A2E779047830E6D1
:10004E0033F608D9FA79057838E636D4F608D9F9B0
:10005E00DAE5D002D001D000D0D0D0E022C0E0C08E
:10006E00D0C000C001C002E4F538F539F53AF53BD1
:10007E00F53C7A20E533A2E779047830E633F608CA
:10008E00D9FA79057838C0D0E6243320E70224D097
:10009E0020E30224FDD0D033F608D9EADAD6D00216
:1000AE00D001D000D0D0D0E022C0E0C0D0C000C07F
:1000BE0001C0027A207905C3783CE613C0D030E740
:1000CE000224D030E30224FDF618D0D0D9EC790406
:1000DE007833E613F618D9FADADBD002D001D00065
:1000EE00D0D0D0E022C0E0C0D0E5302534F530E5E8
:1000FE00313535F531E5323536F532E5333537F50F
:10010E0033D0D0D0E022C0E0C0D0C3E5309534F576
:10011E0030E5319535F531E5329536F532E53395E5
:10012E0037F533D0D0D0E022C0E0C0D0C3E5309553
:10013E0034E5319535E5329536E53395379200D075
:10014E00D0D0E022C0E0C0D0C3E5349530E535957F
:10015E0031E5369532E53795339200D0D0D0E02296
:10016E00C0E0C0D0C200C3E53495307014E53595BB
:10017E0031700EE53695327008E53795337002D240
:10018E0000D0D0D0E02212016E20000302015222D4
:10019E0012016E20000302013622C0E0C0F0C0D072
:1001AE00C000C001C002C003E5308534F0A4F8A938
:1001BE00F0E5318534F0A429F9E435F0FAE530851F
:1001CE0035F0A429F9E5F03AFAE433FBE53285344B
:1001DE00F0A42AFAE5F03BFBE5318535F0A42AFAC6
:1001EE00E5F03BFBE5308536F0A42AFAE5F03BFB63
:1001FE00E5338534F0A42BFBE5328535F0A42BFBDB
:10020E00E5318536F0A42BFBE5308537F0A42BFBCA
:10021E008B338A3289318830D003D002D001D0009E
:10022E00D0D0D0F0D0E022C0E0C0D0C000C001C01D
:10023E0002C003C0047C20E4F8F9FAFBC3E53033B6
:10024E00F530E53133F531E53233F532E53333F55B
:10025E0033E833F8E933F9EA33FAEB33FBC3E895C5
:10026E0034E99535EA9536EB95374013E89534F831
:10027E00E99535F9EA9536FAEB9537FB433001DC13
:10028E00BBD004D003D002D001D000D0D0D0E02219
:10029E00C0E0E8C4540F443012057AE8540F4430DD
:0602AE0012057AD0E022E7
:1002B400C00078B10000D8FCD00022C000C0017991
:1002C4002D78A6D8FED9FADAF6D001D00022D2B31E
:1002D4001202B4C2B322A2E792B7A2E692B6A2E592
:1002E40092B5A2E492B41202D21202B4A2E392B77B
:1002F400A2E292B6A2E192B5A2E092B41202D22294
:10030400D2B20202DAC2B20202DAC2B37433120304
:10031400097433120309743212030974281203098D
:10032400740C1203097401120309C0027A02120246
:10033400BFD00222E4936006120304A380F6224491
:10034400404480020309C0E0E8C4540F443012035F
:1003540004E8540F4430120304D0E022736F616B3D
:1003640020202020202020202020202000746D70B8
:100374003A5858582074696D653A5858580072654F
:10038400666C2020202020202020202020200063B4
:100394006F6F6C202A202020202020202020200085
:1003A400746D703A58585820202020202020202096
:1003B4000074656D703A58585820737461746520E0
:1003C4005800656C61707365642058583A58582019
:1003D400202000E58954F04401F589758CA9758ABB
:1003E4009A75F4A975F29AD2A922758CA9758A9A7C
:1003F40075F4A975F29A3275C80075CDA975CC9AB1
:1004040075CBA975CA9AE4F53FF540D2ADD2CA229C
:10041400C2CFB290C0E0C0D0053FE53F70020540B6
:10042400E53FB4E831E540B4032CD202E4F53FF5EE
:1004340040E541B45910E4D4F541E542B4590FE420
:10044400D4F54202045A2401D4F54102045A240189
:10045400D4F54202045AD0D0D0E03279DE78A6D85E
:10046400FED9FA438780759852759B00759AF47586
:100474009B1E22D2A2C2A32275817FC2D0120A5629
:1004840012045F12047712030E75010075030075E0
:1004940045007541007542001203D71203FBD2AF29
:1004A40030020EC2021205821204DC1204F7120496
:1004B400C720010612083E0204A412094002099E44
:1004C4000204A4E54DC394FB4006200306D2032294
:1004D400C20322C203740522C2A078011205437824
:1004E40080120543E95403F53E7855120543893DCE
:1004F400D2A022853D30853E3175320075330075BA
:10050400349A7535017536007537001201A87534B3
:10051400FF753503753600753700120235753411D1
:1005240075350175360075370012011412002E124C
:10053400055CE530B432004003D28C22C28C22C068
:10054400E079007A08E833F892A1D2A3A2A2E933B1
:10055400F9C2A3DAF0D0E022E539540F4430F8129E
:10056400057AC000A83812029ED000740D12057AD4
:10057400740A12057A223099FDC299F59922200154
:100584000302063EC0E0740114120345D0E0C083A8
:10059400C082C0E09003B5120338D0E0D082D0838B
:1005A400C0E0740114120343D0E0C083C082C0E0F1
:1005B4009003C6120338D0E0D082D083C0E0740622
:1005C40014120345D0E075300075310075320075A2
:1005D4003300854D3012002EE539540F4430F8E8CD
:1005E400120304C000A83812034AD000C0E07410FB
:1005F40014120345D0E07530007531007532007572
:10060400330085453012002EE538540F4430F8E8A5
:10061400120304C0E0740914120343D0E0C000A81C
:100624004212034AD000C0E0740C14120343D0E019
:10063400C000A84112034AD00022E544B4000302DA
:10064400065BB4010302065BB40203020718B40399
:10065400030207180207D5C0E0740114120345D041
:10066400E0C083C082C0E0900360120338D0E0D0C1
:1006740082D083C0E0740114120343D0E0C083C06D
:1006840082C0E0900371120338D0E0D082D083C0DE
:10069400E0740514120343D0E07530007531007521
:1006A400320075330085463012002EE539540F446C
:1006B40030F8E8120304C000A83812034AD000C07E
:1006C400E0740E14120343D0E075300075310075E8
:1006D400320075330085473012002EE539540F443B
:1006E40030F8E8120304C000A83812034AD000E529
:1006F40044B4000CC0E0740614120345D0E0800A30
:10070400C0E0740F14120345D0E0C0E0742A120351
:1007140004D0E022C0E0740114120345D0E0C08389
:10072400C082C0E0900382120338D0E0D082D0832C
:10073400C0E0740114120343D0E0C083C082C0E05F
:10074400900371120338D0E0D082D083C0E07405E6
:1007540014120343D0E07530007531007532007512
:10076400330085483012002EE539540F4430F8E840
:10077400120304C000A83812034AD000C0E0740E6B
:1007840014120343D0E075300075310075320075E2
:10079400330085493012002EE539540F4430F8E80F
:1007A400120304C000A83812034AD000E544B4027E
:1007B4000CC0E0740614120345D0E0800AC0E07453
:1007C4000F14120345D0E0C0E0742A120304D0E0F1
:1007D40022C0E0740114120345D0E0C083C082C07B
:1007E400E0900393120338D0E0D082D083C0E07449
:1007F4000114120343D0E0C083C082C0E09003A47C
:10080400120338D0E0D082D083C0E0740514120300
:1008140043D0E075300075310075320075330085C2
:100824004C3012002EE539540F4430F8E81203041A
:10083400C000A83812034AD00022208623C0027ABE
:10084400321202BFD0022086173086FDE544B4047C
:1008540006754400020582E5442401F5440205823C
:1008640020835EC0027A321202BFD002208352304B
:1008740083FDE544B4000DE5462401F546120A1B48
:1008840002058222B4010DE5472401F547120A1B33
:1008940002058222B4020DE5482401F548120A1B20
:1008A40002058222B4030DE5492401F549120A1B0D
:1008B40002058222E54C2401F54C120A1B02058232
:1008C40022208077C0027A321202BFD00220806BCD
:1008D4003080FDE544B40012E546B400028004947F
:1008E40001F546120A1B02058222B40112E547B43F
:1008F400000280049401F547120A1B02058222B407
:100904000212E548B4000280049401F548120A1B5F
:1009140002058222B40312E549B400028004940162
:10092400F549120A1B02058222E54CB40002800438
:100934009401F54C120A1B020582222220C513C021
:10094400027A321202BFD00220C50730C5FD7405F9
:10095400F5452220A411C0027A321202BFD002202F
:10096400A40530A4FDB20122E54AB46409D2D02220
:10097400B40003C2D022E53FB4000EC2D0E53FB4B8
:100984002007E540B40302D2D02275469675472D60
:100994007548E175491E754C3222E545B400117560
:1009A4004A00120957300105754501C2010204A429
:1009B400B40115754A64754B00E546C3954D500561
:1009C400754502D2010204A4B40210754A14E54725
:1009D400C3954B50037545030204A4B40313754A2D
:1009E40064754B00E548C3954D50037545040204F6
:1009F400A4B40410754A14E549C3954B50037545D6
:100A0400050204A4B40595754A00E54DC3954C5000
:100A1400037545000204A4C0A8C2AF75D108907F35
:100A240080E546F0A3E547F0A3E548F0A3E549F0E7
:100A3400A3E54CF0A37455F0A374AAF0A375D100F8
:100A440043D24075D15075D1A075D10053D2BFD0D7
:100A5400A822907F84E493F8A3B85524E493F8A3E0
:100A6400B8AA1D907F80E493F546A3E493F547A3C9
:100A7400E493F548A3E493F549A3E493F54CA32246
:050A840002098E222290
:00000001FF
