:0300000002037880
:0100030032CA
:01000B0032C2
:0100130032BA
:03001B000200647C
:0100230032AA
:01005B003272
:1000630032C0E0C0D0E53045314532601C74FF1525
:1000730030B530071531B531021532D2A41200ADB7
:100083002480F5AD43A440800CC28ED287C2A475F0
:10009300AD8043A440D0D0D0E03210990280FBF56C
:1000A300992210980280FBE599223392A5D284A26B
:1000B300A7C28492E03392A5D284A2A7C28492E01D
:1000C3003392A5D284A2A7C28492E03392A5D284AC
:1000D300A2A7C28492E03392A5D284A2A7C284923B
:1000E300E03392A5D284A2A7C28492E03392A5D230
:1000F30084A2A7C28492E03392A5D284A2A7C28429
:1001030092E022C28774061200ADD28722C287749E
:10011300051200AD74551200ADD28720E0EF2279AD
:10012300DE78A6D8FED9FA438780759852759B006E
:10013300759AF4759B1E43CE2043CF2043E690432C
:10014300E748D2A7D287C284C2A453890F43891038
:10015300758DFC758B1575F5FC75F315D2AB75A50F
:10016300A075A43A75AD8075AC0043A440E5A42006
:10017300E6FBD2AF2200102030405060708191A185
:10018300B1C1D1E1F112023222524272629383B3BE
:10019300A3D3C3F3E32434041464744454A5B5858E
:1001A30095E5F5C5D53626160676665646B7A7975E
:1001B30087F7E7D7C74858687808182838C9D9E9AE
:1001C300F98999A9B95A4A7A6A1A0A3A2ADBCBFBFE
:1001D300EB9B8BBBAB6C7C4C5C2C3C0C1CEDFDCDCE
:1001E300DDADBD8D9D7E6E5E4E3E2E1E0EFFEFDF9E
:1001F300CFBFAF9F8F9181B1A1D1C1F1E110003089
:1002030020504070608393A3B3C3D3E3F30212225D
:100213003242526272B5A59585F5E5D5C5342414ED
:100223000474645444A7B78797E7F7C7D7263606FD
:100233001666764656D9C9F9E99989B9A95848780D
:100243006818083828CBDBEBFB8B9BABBB4A5A6A9D
:100253007A0A1A2A3AFDEDDDCDBDAD9D8D7C6C5C2D
:100263004C3C2C1C0CEFFFCFDFAFBF8F9F6E7E4E3D
:100273005E2E3E0E1E0021426384A5C6E708294A6E
:100283006B8CADCEEF31107352B594F7D639187B22
:100293005ABD9CFFDE62432001E6C7A4856A4B2852
:1002A30009EECFAC8D53721130D7F695B45B7A1942
:1002B30038DFFE9DBCC4E586A740610223CCED8EEA
:1002C300AF48690A2BF5D4B79671503312FDDCBFE2
:1002D3009E79583B1AA687E4C522036041AE8FEC92
:1002E300CD2A0B684997B6D5F4133251709FBEDD02
:1002F300FC1B3A597888A9CAEB0C2D4E6F80A1C21A
:10030300E304254667B998FBDA3D1C7F5EB190F3A1
:10031300D235147756EACBA8896E4F2C0DE2C3A0D1
:100323008166472405DBFA99B85F7E1D3CD3F291C1
:10033300B0577615344C6D0E2FC8E98AAB44650669
:1003430027C0E182A37D5C3F1EF9D8BB9A75543761
:1003530016F1D0B3922E0F6C4DAA8BE8C926076411
:1003630045A283E0C11F3E5D7C9BBAD9F817365581
:100373007493B2D1F075817F12012275E60075E79F
:100383000020983720C5FA30C5FDC28ED287C2A49B
:10039300C28774031200AD74001200AD7400120022
:1003A300AD74001200AD74001200AD75323F7531AB
:1003B300FF7530FFD2A4D28E0203841200A5B423AA
:1003C300C0C28ED287C2A41200A5B43024C28774DF
:1003D3009F1200AD74551200AD12009D74551200AA
:1003E300AD12009D74551200AD12009DD287020319
:1003F30084B43117120106C28774C71200ADD287C5
:10040300120110740112009D020384B432351201EB
:1004130006C28774021200AD1200A51200AD1200CD
:10042300A51200AD1200A51200AD1200A5F812002E
:10043300A51200ADD8F8D287120110740112009DE5
:10044300020384B4332CC28774031200AD1200A5D7
:100453001200AD1200A51200AD1200A51200AD12DC
:1004630000A5F874551200AD12009DD8F6D287028C
:100473000384B43437C28ED28700C2877403120058
:10048300AD1200A51200AD1200A51200AD1200A519
:100493001200AD1200A5F5321200A5F5311200A528
:1004A300F53074001200ADD28E020384B4354B12C2
:1004B30000A5FD1200A5FC1200A5FB0B0C0DE4FF2B
:1004C300FEC28774031200ADE41200ADE41200AD66
:1004D300E41200AD80111200AD6FF8900178936EB5
:1004E300FFE890027893FEDBEDDCEBDDE9D287EFEA
:1004F30012009DEE12009D020384B43635120106EC
:10050300C28774021200AD1200A51200AD1200A53D
:100513001200AD1200A51200AD1200A5F97800E992
:100523001200ADD8FAD287120110740112009D0295
:050533000384020384B3
:00000001FF
