:0300000002037A7E
:0100030032CA
:01000B0032C2
:0100130032BA
:03001B000200647C
:0100230032AA
:01005B003272
:1000630032C0E0C0D0E53045314532601E74FF1523
:1000730030B530071531B531021532D2A41200AFB5
:10008300F5802480F5AD43A440800CC28ED287C294
:10009300A475AD8043A440D0D0D0E0321099028043
:1000A300FBF5992210980280FBE599223392A5D2A1
:1000B30084A2A7C28492E03392A5D284A2A7C28469
:1000C30092E03392A5D284A2A7C28492E03392A590
:1000D300D284A2A7C28492E03392A5D284A2A7C2FB
:1000E3008492E03392A5D284A2A7C28492E0339291
:1000F300A5D284A2A7C28492E03392A5D284A2A7F8
:10010300C28492E022C28774061200AFD28722C251
:100113008774051200AF74551200AFD28720E0EF49
:100123002279DE78A6D8FED9FA438780759852756E
:100133009B00759AF4759B1E43CE3143CF31D2A7F2
:10014300D287C284C2A453890F438910758DFC756D
:100153008B1575F5FC75F315D2AB75A5A075A43A8F
:1001630075AD8075AC0043A440E5A420E6FBD2AF97
:1001730075E60075E7FF2200102030405060708163
:1001830091A1B1C1D1E1F1120232225242726293C2
:1001930083B3A3D3C3F3E32434041464744454A592
:1001A300B58595E5F5C5D53626160676665646B762
:1001B300A79787F7E7D7C74858687808182838C932
:1001C300D9E9F98999A9B95A4A7A6A1A0A3A2ADB02
:1001D300CBFBEB9B8BBBAB6C7C4C5C2C3C0C1CEDD2
:1001E300FDCDDDADBD8D9D7E6E5E4E3E2E1E0EFFA2
:1001F300EFDFCFBFAF9F8F9181B1A1D1C1F1E110EB
:10020300003020504070608393A3B3C3D3E3F30261
:1002130012223242526272B5A59585F5E5D5C534F1
:1002230024140474645444A7B78797E7F7C7D72601
:1002330036061666764656D9C9F9E99989B9A95891
:1002430048786818083828CBDBEBFB8B9BABBB4AA1
:100253005A6A7A0A1A2A3AFDEDDDCDBDAD9D8D7C31
:100263006C5C4C3C2C1C0CEFFFCFDFAFBF8F9F6E41
:100273007E4E5E2E3E0E1E0021426384A5C6E70815
:10028300294A6B8CADCEEF31107352B594F7D63942
:10029300187B5ABD9CFFDE62432001E6C7A4856A32
:1002A3004B2809EECFAC8D53721130D7F695B45B62
:1002B3007A1938DFFE9DBCC4E586A740610223CCD2
:1002C300ED8EAF48690A2BF5D4B79671503312FD02
:1002D300DCBF9E79583B1AA687E4C522036041AE72
:1002E3008FECCD2A0B684997B6D5F4133251709F22
:1002F300BEDDFC1B3A597888A9CAEB0C2D4E6F80E2
:10030300A1C2E304254667B998FBDA3D1C7F5EB1C1
:1003130090F3D235147756EACBA8896E4F2C0DE2B1
:10032300C3A08166472405DBFA99B85F7E1D3CD3E1
:10033300F291B0577615344C6D0E2FC8E98AAB4451
:10034300650627C0E182A37D5C3F1EF9D8BB9A7581
:10035300543716F1D0B3922E0F6C4DAA8BE8C926F1
:10036300076445A283E0C11F3E5D7C9BBAD9F817A1
:1003730036557493B2D1F075817F12012475E6006E
:1003830075E70020983720C5FA30C5FDC28ED287A5
:10039300C2A4C28774031200AF74001200AF7400CA
:1003A3001200AF74001200AF74001200AF75323F39
:1003B3007531FF7530FFD2A4D28E0203861200A7D7
:1003C300B423C0C28ED287C2A41200A7B43024C201
:1003D30087749F1200AF74551200AF12009F7455BB
:1003E3001200AF12009F74551200AF12009FD28704
:1003F300020386B43117120108C28774C71200AF13
:10040300D287120112740112009F020386B432359F
:10041300120108C28774021200AF1200A71200AFC4
:100423001200A71200AF1200A71200AF1200A7F824
:100433001200A71200AFD8F8D2871201127401126A
:10044300009F020386B4332CC28774031200AF12D9
:1004530000A71200AF1200A71200AF1200A71200EC
:10046300AF1200A7F874551200AF12009FD8F6D24E
:1004730087020386B43437C28ED28700C2877403DF
:100483001200AF1200A71200AF1200A71200AF12A2
:1004930000A71200AF1200A7F5321200A7F5311220
:1004A30000A7F53074001200AFD28E020386B43574
:1004B3004B1200A7FD1200A7FC1200A7FB0B0C0DAB
:1004C300E4FFFEC28774031200AFE41200AFE4122C
:1004D30000AFE41200AF80111200AF6FF890017A01
:1004E300936EFFE890027A93FEDBEDDCEBDDE9D25D
:1004F30087EF12009FEE12009F020386B436351277
:100503000108C28774021200AF1200A71200AF12D3
:1005130000A71200AF1200A71200AF1200A7F978CC
:1005230000E91200AFD8FAD2871201127401120047
:070533009F0203860203860C
:00000001FF
